:020000040000FA
:100000000C948F000C94B7000C94B7000C94B700BC
:100010000C94B7000C94B7000C94B7000C94B70084
:100020000C94B7000C94B7000C94B7000C94B70074
:100030000C94B7000C94B7000C94B7000C94B70064
:100040000C94AC040C94B7000C947A040C945404F3
:100050000C94B7000C94B7000C94B7000C94B70044
:100060000C94B7000C94B70008000000BE9224491D
:10007000123EABAAAA2ABECDCCCC4C3E00000080DA
:10008000BEABAAAAAA3E00000000BF000000803F4D
:100090000000000000084178D3BB4387D1133D190D
:1000A0000E3CC3BD4282AD2B3E68EC8276BED98F3A
:1000B000E1A93E4C80EFFFBE01C4FF7F3F0000007E
:1000C000000000000000240027002A0000000000BB
:1000D000250028002B000000000023002600290036
:1000E00004040404040404040202020202020303DE
:1000F00003030303010204081020408001020408E6
:100100001020010204081020000000080002010075
:10011000000304070000000000000000F6041124A2
:100120001FBECFEFD8E0DEBFCDBF11E0A0E0B1E051
:10013000E8ECF5E102C005900D92A034B107D9F7C3
:1001400022E0A0E4B1E001C01D92A030B207E1F7C7
:1001500010E0CFE8D0E004C02197FE010E94CD0A54
:10016000CE38D107C9F70E9441050C94E20A0C94DD
:100170000000AF92BF92CF92DF92EF92FF920F9367
:100180001F93CF93DF936C017B018B01040F151F2D
:10019000EB015E01AE18BF08C017D10759F0699195
:1001A000D601ED91FC910190F081E02DC6010995F9
:1001B000892B79F7C501DF91CF911F910F91FF90A6
:1001C000EF90DF90CF90BF90AF900895FC01538DDA
:1001D000448D252F30E0842F90E0821B930B541721
:1001E00010F0CF96089501970895FC01918D828DAE
:1001F000981761F0A28DAE0FBF2FB11D5D968C9147
:10020000928D9F5F9F73928F90E008958FEF9FEF85
:100210000895FC01918D828D981731F0828DE80F41
:10022000F11D858D90E008958FEF9FEF0895FC01FB
:10023000918D228D892F90E0805C9F4F821B9109C8
:100240008F73992708958BE491E00E94170121E0B4
:10025000892B09F420E0822F089580E090E0892B1B
:1002600029F00E94230181110C9400000895FC01E3
:10027000A48DA80FB92FB11DA35ABF4F2C91848D07
:1002800090E001968F739927848FA689B7892C9364
:10029000A089B1898C91837080648C93938D848DB7
:1002A000981306C00288F389E02D80818F7D8083BA
:1002B0000895EF92FF920F931F93CF93DF93EC017A
:1002C00081E0888F9B8D8C8D98131AC0E889F989FD
:1002D000808185FF15C09FB7F894EE89FF89608300
:1002E000E889F98980818370806480839FBF81E081
:1002F00090E0DF91CF911F910F91FF90EF900895C3
:10030000F62E0B8D10E00F5F1F4F0F731127E02E9D
:100310008C8D8E110CC00FB607FCFACFE889F989D5
:10032000808185FFF5CFCE010E943701F1CFEB8DA3
:10033000EC0FFD2FF11DE35AFF4FF0829FB7F894A9
:100340000B8FEA89FB8980818062CFCFCF93DF93C7
:10035000EC01888D8823B9F0AA89BB89E889F989DD
:100360008C9185FD03C0808186FD0DC00FB607FC12
:10037000F7CF8C9185FFF2CF808185FFEDCFCE0145
:100380000E943701E9CFDF91CF910895833081F04A
:1003900028F4813099F08230A9F008958730A9F0CF
:1003A0008830C9F08430B1F4809180008F7D03C023
:1003B000809180008F7780938000089584B58F7737
:1003C00084BD089584B58F7DFBCF8091B0008F7779
:1003D0008093B00008958091B0008F7DF9CF1F9376
:1003E000CF93DF93282F30E0F901E85FFE4F84912F
:1003F000F901EC50FF4FD491F901E052FF4FC49145
:10040000CC23A9F0162F81110E94C601EC2FF0E039
:10041000EE0FFF1FE453FF4FA591B4918FB7F894EF
:10042000EC91111108C0D095DE23DC938FBFDF91D2
:10043000CF911F910895DE2BF8CFCF93DF9390E0FB
:10044000FC01EC50FF4F249180529F4FFC0184919E
:100450008823D1F090E0880F991FFC01EE53FF4FE5
:10046000A591B491FC01E453FF4FC591D491611162
:100470000EC09FB7F8948C91E22FE0958E238C9359
:100480002881E223E8839FBFDF91CF9108958FB742
:10049000F894EC91E22BEC938FBFF6CF8E508064F2
:1004A00080937C0080917A00806480937A008091B0
:1004B0007A0086FDFCCF80917800909179000895B4
:1004C0003FB7F8948091450190914601A091470172
:1004D000B091480126B5A89B05C02F3F19F00196A1
:1004E000A11DB11D3FBFBA2FA92F982F8827BC018E
:1004F000CD01620F711D811D911D42E0660F771FB6
:10050000881F991F4A95D1F70895089590E080E0DB
:100510000895FC0101900020E9F73197AF01481BD5
:10052000590BBC0188EE91E00C94B9008F929F9218
:10053000AF92BF920F931F93CF93DF93CDB7DEB7E8
:10054000A1970FB6F894DEBF0FBECDBF19A24230FF
:1005500008F44AE08E010F5D1F4F842E912CB12CC0
:10056000A12CA50194010E94900AE62FB901CA01AD
:10057000EA30F4F4E05DD801EE938D01232B242BB7
:10058000252B79F790E080E0109719F0CD010E94BB
:100590008902A1960FB6F894DEBF0FBECDBFDF91E2
:1005A000CF911F910F91BF90AF909F908F90089522
:1005B000E95CE1CFCF93DF93EC0160E08E810E9494
:1005C000EF0161E08E810E94EF0160E08E810E9468
:1005D000EF018BE891E00197F1F7DF91CF9108955A
:1005E000CF92DF92EF92FF920F931F93CF93DF93FF
:1005F0006C017C0187E0E80EF11CD0E0C0E0062F22
:1006000010E0B8010C2E02C0759567950A94E2F7C8
:100610006170F70181917F010E94EF012196C43042
:10062000D10579F7C601DF91CF911F910F91FF900E
:10063000EF90DF90CF900C94DA02CF92DF92EF929E
:10064000FF920F931F93CF93DF93EC01F62E642F4D
:100650008C810E94EF018D818F3F19F060E00E9434
:10066000EF010F2D10E08F8584FF25C06E0187E01C
:10067000C80ED11CF12CE12CB8010E2C02C07595CE
:1006800067950A94E2F76170F60181916F010E940B
:10069000EF01FFEFEF1AFF0A88E0E816F10461F7B7
:1006A000CE01DF91CF911F910F91FF90EF90DF90DE
:1006B000CF900C94DA02B80184E0759567958A951D
:1006C000E1F7CE010E94F0026F2DCE01DF91CF91B4
:1006D0001F910F91FF90EF90DF90CF900C94F0025C
:1006E00040E0682F88EE91E00C941D03CF93DF93D8
:1006F000613029F09091F70198609093F701609331
:10070000FB011092FC0190E49093FD018093FE01A7
:10071000805C8093FF0161E08091EC010E941D02EA
:100720008091ED018F3F19F061E00E941D0261E0B0
:100730008091EE010E941D02C8EED1E09E01285E6C
:1007400031408091F70184FD0BC084E090E0219658
:100750002817390744F461E08E810E941D02EECF14
:1007600088E090E0F4CF8BE39DE00197F1F760E043
:100770008091EC010E94EF0160E08091EE010E9407
:10078000EF018091ED018F3F19F060E00E94EF01D1
:100790008091F70184FD39C063E088EE91E00E940A
:1007A000F002CBE4D6E4CE010197F1F763E088EEE6
:1007B00091E00E94F0022197F1F763E088EE91E06A
:1007C0000E94F00283E592E00197F1F762E088EE83
:1007D00091E00E94F0028091F70180620E94700314
:1007E00084E08093F8018CE00E94700381E00E9415
:1007F00070038BE39FE10197F1F782E08093F901A9
:1008000086E0DF91CF910C94700380620E947003A8
:100810008BE496E40197F1F78091F70180620E94E2
:10082000700383E592E00197F1F78091F701806210
:100830000E947003D0CF9091FB01891710F08FEFC9
:10084000890FE82FF0E0E851FE4F848980680C940E
:10085000700341E00E941D0381E090E00895CF9273
:10086000DF92EF92FF9297FF18C06B017C0141E08D
:100870006DE288EE91E00E941D0366277727CB0189
:100880006C197D098E099F094AE00E949602019623
:10089000FF90EF90DF90CF9008954AE0FF90EF90A7
:1008A000DF90CF900C9496021F920F920FB60F928A
:1008B00011242F933F934F935F936F937F938F9365
:1008C0009F93AF93BF93EF93FF938BE491E00E94CC
:1008D0003701FF91EF91BF91AF919F918F917F91E0
:1008E0006F915F914F913F912F910F900FBE0F909D
:1008F0001F9018951F920F920FB60F9211242F93ED
:100900008F939F93EF93FF93E0915B01F0915C01D4
:100910008081E0916101F091620182FD1BC09081B4
:10092000809164018F5F8F7320916501821741F080
:10093000E0916401F0E0E55BFE4F958F80936401E8
:10094000FF91EF919F918F912F910F900FBE0F907C
:100950001F9018958081F4CF1F920F920FB60F92BF
:1009600011242F933F938F939F93AF93BF938091C5
:10097000410190914201A0914301B0914401309115
:10098000400123E0230F2D3758F50196A11DB11D1D
:10099000209340018093410190934201A093430131
:1009A000B09344018091450190914601A091470187
:1009B000B09148010196A11DB11D8093450190930E
:1009C0004601A0934701B0934801BF91AF919F9119
:1009D0008F913F912F910F900FBE0F901F90189500
:1009E00026E8230F0296A11DB11DD2CFEBE4F1E062
:1009F0001382128288EE93E0A0E0B0E084839583B6
:100A0000A683B78388E091E09183808385EC90E0B2
:100A10009587848784EC90E09787868780EC90E0C8
:100A2000918B808B81EC90E0938B828B82EC90E0B9
:100A3000958B848B86EC90E0978B868B118E128E33
:100A4000138E148EE8EEF1E0138212828AE191E0B7
:100A5000918380838CE084838FEF85838BE0868312
:100A600085E0878384E0808783E0818782E08287D6
:100A70001386148615861686178661E080E10C942D
:100A80007603789484B5826084BD84B5816084BD2A
:100A900085B5826085BD85B5816085BD80916E001C
:100AA000816080936E00109281008091810082604D
:100AB000809381008091810081608093810080918A
:100AC00080008160809380008091B1008460809379
:100AD000B1008091B00081608093B00080917A0075
:100AE000846080937A0080917A00826080937A009B
:100AF00080917A00816080937A0080917A0080688A
:100B000080937A001092C100E0915B01F0915C014A
:100B100082E08083E0915701F09158011082E091CA
:100B20005901F0915A018FEC808310926301E0919A
:100B30005F01F091600186E08083E0915D01F091BA
:100B40005E01808180618083E0915D01F0915E01B2
:100B5000808188608083E0915D01F0915E018081F9
:100B600080688083E0915D01F0915E0180818F7DDE
:100B7000808364E084E10E94760360E08FE00E945D
:100B80001D0260E086E00E941D0280E00E941B04BE
:100B9000CBE3DFE12AE0222E312C3CE9832E3FE833
:100BA000932EAA24A394B12C00E010E081E00E94CF
:100BB0007003CE010197F1F780E00E941B0482E2EE
:100BC00091E00E9489028FE00E944E0225E0289F5A
:100BD000D001299FB00D11242AE030E00E94B20A12
:100BE0002B013C012FEF33E040E050E00E94900ADF
:100BF000CA01B90124E630E040E050E00E94900ACA
:100C00007B01C301B201A50194010E94900AB901C0
:100C1000330F880B990B0E942F04C701B1010E946A
:100C20007C0A7C01072E000C880B990B0E942F0474
:100C300087E291E00E948902B701FF0C880B990BB3
:100C40000E942F0481E00E941B0489E291E00E942F
:100C500089028EE00E944E02BC01990F880B990B0D
:100C60000E94D0089B01AC0160E070E080E894E451
:100C70000E94260820E030E040E85FE30E94B407CD
:100C80000E948D099B01AC016EE87DE583E191E452
:100C90000E94B4076B017C01AC019B010E94D50945
:100CA000A70196010E94D5092B013C014092000149
:100CB0005092010160920201709203012DE435EB24
:100CC0004BE759E3C701B6010E94D5092BE73DEC7C
:100CD00041E95AE30E94B5076B017C012DE730ED35
:100CE00048E253E3C301B2010E94D5099B01AC0164
:100CF000C701B6010E94B5079B01AC0160E070E03E
:100D000080E89FE30E94260823E333E948E853E4A0
:100D10000E94B4070E949808072E000C880B990BBC
:100D20000E942F0480E10E944E0290934A0180931A
:100D3000490182E00E941B048EE291E00E94890238
:100D4000EEE0F1E08491EAEFF0E0E490E6EEF0E02E
:100D5000F490FF2009F471C081110E94C601EF2DAB
:100D6000F0E0EE0FFF1FEA52FF4FA591B4918C9176
:100D7000E82291E080E009F490E0E92EF82E8091DD
:100D8000490190914A01F5E0F89FB001F99F700D7B
:100D90001124072E000C880B990B0E94D00820E02C
:100DA00030EC4FE754E40E9426082DEC3CEC4CEC70
:100DB0005EE3EF2821F425E83BEE41E95FE30E9482
:100DC00026086B017C01AC019B010E94420A88232A
:100DD000B9F183E391E00E9489020E9460022B0135
:100DE0003C0184E6C82ED12CE12CF12C0E9460023B
:100DF0006419750986099709683E73408105910554
:100E0000A8F321E0C21AD108E108F10888EE480EE3
:100E100083E0581E611C711CC114D104E104F1046B
:100E200029F70115110509F4C1CE0E942301882379
:100E300009F4BCCE0E940000B9CEF12CE12C9FCF6A
:100E400026013701E89477F82FEF3FEF4FE75FE790
:100E5000C301B2010E94420A81110DC02FEF3FEF82
:100E60004FE75FE7C301B2010E94210818161CF486
:100E700087E391E0B0CF2FEF3FEF4FE75FE4C7018B
:100E8000B6010E94800918161CF48BE391E0A3CFF1
:100E90002FEF3FEF4FE75FECC701B6010E9421083B
:100EA00087FDF3CF20E030E0A901C701B6010E9421
:100EB000210887FF0AC041E06DE288EE91E00E94C0
:100EC0001D03F7FAF094F7F8F0942AE037ED43EABF
:100ED0005BE3C701B6010E94B5072B013C010E94EC
:100EE0009F086B017C010E94CE089B01AC01C301ED
:100EF000B2010E94B4072B013C014AE0C701B601D0
:100F00000E94960241E06EE288EE91E00E941D038D
:100F100020E030E040E251E4C301B2010E94D50973
:100F20002B013C010E949F086B01F12CE12C4AE04F
:100F3000C701B6010E949602C701B6010E94CE0801
:100F40009B01AC01C301B2010E94B40720E030E074
:100F500040E251E40E94D5090E949F0890E080E0A1
:100F60004AE00E94960239CF5058BB27AA270E9418
:100F7000CC070C9446090E94380938F00E943F09BA
:100F800020F039F49F3F19F426F40C9435090EF43F
:100F9000E095E7FB0C942F09E92F0E94570958F3BD
:100FA000BA17620773078407950720F079F4A6F54E
:100FB0000C9479090EF4E0950B2EBA2FA02D0B019D
:100FC000B90190010C01CA01A0011124FF27591B8E
:100FD00099F0593F50F4503E68F11A16F040A22F94
:100FE000232F342F4427585FF3CF46953795279505
:100FF000A795F0405395C9F77EF41F16BA0B620B04
:10100000730B840BBAF09150A1F0FF0FBB1F661F4A
:10101000771F881FC2F70EC0BA0F621F731F841F8D
:1010200048F4879577956795B795F7959E3F08F0B3
:10103000B0CF9395880F08F09927EE0F9795879575
:1010400008950E940B0908F481E008950E943A086F
:101050000C9446090E943F0958F00E94380940F05C
:1010600029F45F3F29F00C942F0951110C947A094F
:101070000C9435090E94570968F39923B1F355235D
:1010800091F3951B550BBB27AA276217730784079B
:1010900038F09F5F5F4F220F331F441FAA1FA9F331
:1010A00035D00E2E3AF0E0E832D091505040E6951F
:1010B000001CCAF72BD0FE2F29D0660F771F881F80
:1010C000BB1F261737074807AB07B0E809F0BB0B73
:1010D000802DBF01FF2793585F4F3AF09E3F510587
:1010E00078F00C942F090C947A095F3FE4F3983E52
:1010F000D4F3869577956795B795F7959F5FC9F770
:10110000880F911D9695879597F90895E1E0660FF0
:10111000771F881FBB1F621773078407BA0720F069
:10112000621B730B840BBA0BEE1F88F7E0950895D2
:101130000E949F086894B1110C947A0908950E9446
:101140005F0988F09F5798F0B92F9927B751B0F0F1
:10115000E1F0660F771F881F991F1AF0BA95C9F73B
:1011600014C0B13091F00E947909B1E008950C9457
:101170007909672F782F8827B85F39F0B93FCCF30A
:10118000869577956795B395D9F73EF490958095B8
:10119000709561957F4F8F4F9F4F0895E89409C0D8
:1011A00097FB3EF490958095709561957F4F8F4F9A
:1011B0009F4F9923A9F0F92F96E9BB279395F695B0
:1011C000879577956795B795F111F8CFFAF4BB0F2E
:1011D00011F460FF1BC06F5F7F4F8F4F9F4F16C092
:1011E000882311F096E911C0772321F09EE8872F1C
:1011F000762F05C0662371F096E8862F70E060E0D8
:101200002AF09A95660F771F881FDAF7880F969550
:10121000879597F90895990F0008550FAA0BE0E8F4
:10122000FEEF16161706E807F907C0F012161306A8
:10123000E407F50798F0621B730B840B950B39F4E8
:101240000A2661F0232B242B252B21F408950A264E
:1012500009F4A140A6958FEF811D811D089597F98E
:101260009F6780E870E060E008959FEF80EC08954C
:1012700000240A9416161706180609060895002475
:101280000A9412161306140605060895092E0394EF
:10129000000C11F4882352F0BB0F40F4BF2B11F463
:1012A00060FF04C06F5F7F4F8F4F9F4F089557FDC2
:1012B0009058440F551F59F05F3F71F04795880FC4
:1012C00097FB991F61F09F3F79F08795089512165B
:1012D00013061406551FF2CF4695F1DF08C0161607
:1012E00017061806991FF1CF8695710561050894B8
:1012F0000895E894BB2766277727CB0197F90895CF
:101300000E940B0908F48FEF089516F00C94470A19
:101310000C94350968940C942F090E945F09A8F376
:101320009923C1F3AEF3DF93CF931F930F93FF92F3
:10133000C92FDD2788232AF02197660F771F881F82
:10134000DAF720E030E040E85FEB9FE3883920F0F7
:10135000803E38F021968F770E94B507E8E6F0E0EE
:1013600004C00E94B507E5E9F0E00E94550A8B0130
:10137000BE01EC01FB2E6F5771097595771F880B25
:10138000990B0E94D00828E132E741E35FE30E9415
:10139000E809AF2D9801AE01FF900F911F91CF91F9
:1013A000DF910E94CC070C9446090E94E8090C9436
:1013B00046090E94380938F00E943F0920F0952321
:1013C00011F00C942F090C94350911240C947A090E
:1013D0000E94570970F3959FC1F3950F50E0551F78
:1013E000629FF001729FBB27F00DB11D639FAA277A
:1013F000F00DB11DAA1F649F6627B00DA11D661FC9
:10140000829F2227B00DA11D621F739FB00DA11DE9
:10141000621F839FA00D611D221F749F3327A00DA3
:10142000611D231F849F600D211D822F762F6A2F3F
:1014300011249F5750409AF0F1F088234AF0EE0FA4
:10144000FF1FBB1F661F771F881F91505040A9F7D1
:101450009E3F510580F00C942F090C947A095F3F50
:10146000E4F3983ED4F3869577956795B795F7950D
:10147000E7959F5FC1F7FE2B880F911D9695879585
:1014800097F908950E940B09880B990B08959F3FC7
:1014900031F0915020F4879577956795B795880F2F
:1014A000911D9695879597F90895DF93CF931F9394
:1014B0000F93FF92EF92DF927B018C01689406C03C
:1014C000DA2EEF010E94E809FE01E894A59125912A
:1014D000359145915591A6F3EF010E94CC07FE018D
:1014E0009701A801DA9469F7DF90EF90FF900F91D0
:1014F0001F91CF91DF91089597FB072E16F400946A
:1015000007D077FD09D00E94B90A07FC05D03EF448
:10151000909581959F4F0895709561957F4F08959F
:10152000A1E21A2EAA1BBB1BFD010DC0AA1FBB1FE7
:10153000EE1FFF1FA217B307E407F50720F0A21B59
:10154000B30BE40BF50B661F771F881F991F1A94C6
:1015500069F760957095809590959B01AC01BD01F0
:10156000CF0108950E94D30AB7FF0895821B930B01
:101570000895AA1BBB1B51E107C0AA1FBB1FA617DA
:10158000B70710F0A61BB70B881F991F5A95A9F72C
:1015900080959095BC01CD010895EE0FFF1F059039
:1015A000F491E02D0994A29FB001B39FC001A39FC5
:1015B000700D811D1124911DB29F700D811D11248C
:1015C000911D0895F894FFCF0000803F00000000B7
:1015D0005901B900E600A6011701F5000901000054
:1015E00000002904B9008602850255313D20002CF7
:1015F0000054313D200049313D20006E616E00698C
:081600006E66006F76660000C3
:107E0000112484B714BE81FFF0D085E080938100F7
:107E100082E08093C00088E18093C10086E0809377
:107E2000C20080E18093C4008EE0C9D0259A86E02C
:107E300020E33CEF91E0309385002093840096BBD3
:107E4000B09BFECF1D9AA8958150A9F7CC24DD24C4
:107E500088248394B5E0AB2EA1E19A2EF3E0BF2EE7
:107E6000A2D0813461F49FD0082FAFD0023811F036
:107E7000013811F484E001C083E08DD089C08234E0
:107E800011F484E103C0853419F485E0A6D080C0E4
:107E9000853579F488D0E82EFF2485D0082F10E0AE
:107EA000102F00270E291F29000F111F8ED06801E7
:107EB0006FC0863521F484E090D080E0DECF843638
:107EC00009F040C070D06FD0082F6DD080E0C81688
:107ED00080E7D80618F4F601B7BEE895C0E0D1E017
:107EE00062D089930C17E1F7F0E0CF16F0E7DF06D8
:107EF00018F0F601B7BEE89568D007B600FCFDCFD4
:107F0000A601A0E0B1E02C9130E011968C91119780
:107F100090E0982F8827822B932B1296FA010C0160
:107F200087BEE89511244E5F5F4FF1E0A038BF0790
:107F300051F7F601A7BEE89507B600FCFDCF97BE46
:107F4000E89526C08437B1F42ED02DD0F82E2BD052
:107F50003CD0F601EF2C8F010F5F1F4F84911BD097
:107F6000EA94F801C1F70894C11CD11CFA94CF0C13
:107F7000D11C0EC0853739F428D08EE10CD085E9AC
:107F80000AD08FE07ACF813511F488E018D01DD067
:107F900080E101D065CF982F8091C00085FFFCCF94
:107FA0009093C60008958091C00087FFFCCF809118
:107FB000C00084FD01C0A8958091C6000895E0E648
:107FC000F0E098E1908380830895EDDF803219F02E
:107FD00088E0F5DFFFCF84E1DECF1F93182FE3DFCA
:107FE0001150E9F7F2DF1F91089580E0E8DFEE27F6
:047FF000FF270994CA
:027FFE00040479
:00000001FF
