:020000040000FA
:100000000C948A000C94B2000C94B2000C94B200D0
:100010000C94B2000C94B2000C94B2000C94B20098
:100020000C94B2000C94B2000C94B2000C94B20088
:100030000C94B2000C94B2000C94B2000C94B20078
:100040000C9412040C94B2000C9482040C945C0482
:100050000C94B2000C94B2000C94B2000C94B20058
:100060000C94B2000C94B20008000000BE92244927
:10007000123EABAAAA2ABECDCCCC4C3E00000080DA
:10008000BEABAAAAAA3E00000000BF000000803F4D
:100090000000000000084178D3BB4387D1133D190D
:1000A0000E3CC3BD4282AD2B3E68EC8276BED98F3A
:1000B000E1A93E4C80EFFFBE01C4FF7F3F0000007E
:1000C000000000000000240027002A0000000000BB
:1000D000250028002B000404040404040404020284
:1000E00002020202030303030303010204081020B7
:1000F00040800102040810200102040810200000C2
:1001000000080002010000030407000000000000D6
:100110000000B40411241FBECFEFD8E0DEBFCDBF76
:1001200011E0A0E0B1E0E2E5F4E102C005900D923B
:10013000A833B107D9F721E0A8E3B1E001C01D92CF
:10014000A83FB207E1F710E0CAE8D0E004C0219769
:10015000FE010E94210AC938D107C9F70E94FE0496
:100160000C94270A0C94000090E0FC01E250FF4F31
:100170002491FC01E651FF4F3491FC01EA52FF4FFC
:10018000E491EE23C9F0222339F0233001F1A8F4E1
:10019000213019F1223029F1F0E0EE0FFF1FE45376
:1001A000FF4FA591B4918FB7F894EC91611126C0DF
:1001B00030953E233C938FBF08952730A9F0283017
:1001C000C9F0243049F7809180008F7D03C0809171
:1001D00080008F7780938000DFCF84B58F7784BDD8
:1001E000DBCF84B58F7DFBCF8091B0008F7780937C
:1001F000B000D2CF8091B0008F7DF9CF3E2BDACF07
:10020000CF93DF9390E0FC01E651FF4F24918A5297
:100210009F4FFC0184918823D1F090E0880F991FB3
:10022000FC01EE53FF4FA591B491FC01E453FF4F45
:10023000C591D49161110EC09FB7F8948C91E22FB3
:10024000E0958E238C932881E223E8839FBFDF9182
:10025000CF9108958FB7F894EC91E22BEC938FBF78
:10026000F6CF8E50806480937C0080917A00806409
:1002700080937A0080917A0086FDFCCF809178008F
:100280009091790008953FB7F89480913F01909143
:100290004001A0914101B091420126B5A89B05C043
:1002A0002F3F19F00196A11DB11D3FBFBA2FA92FF5
:1002B000982F8827BC01CD01620F711D811D911DF2
:1002C00042E0660F771F881F991F4A95D1F708955E
:1002D000AF92BF92CF92DF92EF92FF920F931F9354
:1002E000CF93DF936C017B018B01040F151FEB0192
:1002F0005E01AE18BF08C017D10759F06991D60149
:10030000ED91FC910190F081E02DC6010995892BBA
:1003100079F7C501DF91CF911F910F91FF90EF9079
:10032000DF90CF90BF90AF900895FC01538D448D26
:10033000252F30E0842F90E0821B930B541710F090
:10034000CF96089501970895FC01918D828D98179D
:1003500061F0A28DAE0FBF2FB11D5D968C91928D75
:100360009F5F9F73928F90E008958FEF9FEF0895A6
:10037000FC01918D828D981731F0828DE80FF11D6F
:10038000858D90E008958FEF9FEF0895FC01918D8A
:10039000228D892F90E0805C9F4F821B91098F7383
:1003A0009927089583E491E00E94C60121E0892BFA
:1003B00009F420E0822F089580E090E0892B29F055
:1003C0000E94D20181110C9400000895FC01A48DBB
:1003D000A80FB92FB11DA35ABF4F2C91848D90E067
:1003E00001968F739927848FA689B7892C93A0894A
:1003F000B1898C91837080648C93938D848D9813D4
:1004000006C00288F389E02D80818F7D8083089566
:10041000EF92FF920F931F93CF93DF93EC0181E054
:10042000888F9B8D8C8D98131AC0E889F9898081FB
:1004300085FF15C09FB7F894EE89FF896083E8892E
:10044000F98980818370806480839FBF81E090E020
:10045000DF91CF911F910F91FF90EF900895F62EAD
:100460000B8D10E00F5F1F4F0F731127E02E8C8D47
:100470008E110CC00FB607FCFACFE889F98980818C
:1004800085FFF5CFCE010E94E601F1CFEB8DEC0F99
:10049000FD2FF11DE35AFF4FF0829FB7F8940B8FA9
:1004A000EA89FB8980818062CFCFCF93DF93EC0113
:1004B000888D8823B9F0AA89BB89E889F9898C914C
:1004C00085FD03C0808186FD0DC00FB607FCF7CF08
:1004D0008C9185FFF2CF808185FFEDCFCE010E9408
:1004E000E601E9CFDF91CF910895089590E080E093
:1004F0000895FC0101900020E9F73197AF01481BF6
:10050000590BBC0180EE91E00C9468018F929F9290
:10051000AF92BF920F931F93CF93DF93CDB7DEB708
:10052000A1970FB6F894DEBF0FBECDBF19A242301F
:1005300008F44AE08E010F5D1F4F842E912CB12CE0
:10054000A12CA50194010E94FF09E62FB901CA015F
:10055000EA30F4F4E05DD801EE938D01232B242BD7
:10056000252B79F790E080E0109719F0CD010E94DB
:100570007902A1960FB6F894DEBF0FBECDBFDF9112
:10058000CF911F910F91BF90AF909F908F90089542
:10059000E95CE1CFCF93DF93EC0160E08E810E94B4
:1005A000B40061E08E810E94B40060E08E810E9400
:1005B000B4008BE891E00197F1F7DF91CF910895B6
:1005C000CF92DF92EF92FF920F931F93CF93DF931F
:1005D0006C017C0187E0E80EF11CD0E0C0E0062F42
:1005E00010E0B8010C2E02C0759567950A94E2F7E9
:1005F0006170F70181917F010E94B4002196C4309F
:10060000D10579F7C601DF91CF911F910F91FF902E
:10061000EF90DF90CF900C94CA02CF92DF92EF92CE
:10062000FF920F931F93CF93DF93EC01F62E642F6D
:100630008C810E94B4008D818F3F19F060E00E9490
:10064000B4000F2D10E08F8584FF25C06E0187E078
:10065000C80ED11CF12CE12CB8010E2C02C07595EE
:1006600067950A94E2F76170F60181916F010E942B
:10067000B400FFEFEF1AFF0A88E0E816F10461F713
:10068000CE01DF91CF911F910F91FF90EF90DF90FE
:10069000CF900C94CA02B80184E0759567958A954D
:1006A000E1F7CE010E94E0026F2DCE01DF91CF91E4
:1006B0001F910F91FF90EF90DF90CF900C94E0028C
:1006C00040E0682F80EE91E00C940D03CF93DF9310
:1006D000823029F49091EF0198609093EF0180931C
:1006E000F3011092F40180E48093F50180E180939E
:1006F000F60180E58093F70161E08091E4010E94BA
:1007000000018091E5018F3F19F061E00E94000136
:1007100061E08091E6010E940001C0EED1E09E01FF
:10072000205E31408091EF0184FD0BC084E090E0B9
:1007300021962817390744F461E08E810E94000158
:10074000EECF88E090E0F4CF8BE39DE00197F1F7E6
:1007500060E08091E4010E94B40060E08091E601D5
:100760000E94B4008091E5018F3F19F060E00E9483
:10077000B4008091EF0184FD39C063E080EE91E028
:100780000E94E002CBE4D6E4CE010197F1F763E0EA
:1007900080EE91E00E94E0022197F1F763E080EEA5
:1007A00091E00E94E00283E592E00197F1F762E0B8
:1007B00080EE91E00E94E0028091EF0180620E9451
:1007C000600384E08093F0018CE00E94600381E08C
:1007D0000E9460038BE39FE10197F1F782E0809331
:1007E000F10186E0DF91CF910C94600380620E945A
:1007F00060038BE496E40197F1F78091EF0180624A
:100800000E94600383E592E00197F1F78091EF0188
:1008100080620E946003D0CF41E00E940D0381E01E
:1008200090E008951F920F920FB60F9211242F930C
:100830003F938F939F93AF93BF9380913B01909190
:100840003C01A0913D01B0913E0130913A0123E07D
:10085000230F2D3758F50196A11DB11D20933A01A4
:1008600080933B0190933C01A0933D01B0933E01E6
:1008700080913F0190914001A0914101B0914201CE
:100880000196A11DB11D80933F0190934001A0935B
:100890004101B0934201BF91AF919F918F913F91E0
:1008A0002F910F900FBE0F901F90189526E8230FE1
:1008B0000296A11DB11DD2CF1F920F920FB60F92BB
:1008C00011242F933F934F935F936F937F938F9355
:1008D0009F93AF93BF93EF93FF9383E491E00E94C4
:1008E000E601FF91EF91BF91AF919F918F917F9121
:1008F0006F915F914F913F912F910F900FBE0F908D
:100900001F9018951F920F920FB60F9211242F93DC
:100910008F939F93EF93FF93E0915301F0915401D4
:100920008081E0915901F0915A0182FD1BC09081B4
:1009300080915C018F5F8F7320915D01821741F080
:10094000E0915C01F0E0ED5BFE4F958F80935C01E0
:10095000FF91EF919F918F912F910F900FBE0F906C
:100960001F9018958081F4CFE3E4F1E013821282A6
:1009700088EE93E0A0E0B0E084839583A683B783FC
:1009800088E091E09183808385EC90E0958784876F
:1009900084EC90E09787868780EC90E0918B808B49
:1009A00081EC90E0938B828B82EC90E0958B848B32
:1009B00086EC90E0978B868B118E128E138E148EA0
:1009C000E0EEF1E0138212828AE191E0918380836C
:1009D00086E084838FEF858385E086838EE087833E
:1009E00084E0808783E0818782E082871386148693
:1009F00015861686178681E00C946603789484B574
:100A0000826084BD84B5816084BD85B5826085BD0A
:100A100085B5816085BD80916E00816080936E0098
:100A2000109281008091810082608093810080918A
:100A3000810081608093810080918000816080933B
:100A400080008091B10084608093B1008091B000FB
:100A500081608093B00080917A00846080937A00F6
:100A600080917A00826080937A0080917A00816020
:100A700080937A0080917A00806880937A00109247
:100A8000C100E0915301F091540182E08083E09134
:100A90004F01F09150011082E0915101F09152010B
:100AA0008FEC808310925B01E0915701F091580127
:100AB00086E08083E0915501F0915601808180614C
:100AC0008083E0915501F091560180818860808398
:100AD000E0915501F0915601808180688083E0911A
:100AE0005501F091560180818F7D808382E00E94C4
:100AF000660360E08FE00E94000161E08EE00E94EA
:100B00000001E1E08091F3018111E0E0E195F0E086
:100B1000E052FE4F848980680E9460030BE31FE16E
:100B200095E0392EC0E0D0E081E00E946003C8016A
:100B30000197F1F7E1E08091F3018111E0E0E195A7
:100B4000F0E0E052FE4F84898A5F80680E94600373
:100B500082E291E00E9479028EE00E943101BC01A4
:100B6000990F880B990B0E9453089B01AC0160E020
:100B700070E080E894E40E94A90720E030E040E8BB
:100B80005FE30E9437070E9410099B01AC016EE8E9
:100B90007DE583E191E40E9437076B017C01AC01A4
:100BA0009B010E945809A70196010E9458094B0118
:100BB0005C018092000190920101A0920201B0922A
:100BC00003012DE435EB4BE759E3C701B6010E9461
:100BD00058092BE73DEC41E95AE30E9438076B01C5
:100BE0007C012DE730ED48E253E3C501B4010E94DA
:100BF00058099B01AC01C701B6010E9438079B014F
:100C0000AC0160E070E080E89FE30E94A90723E365
:100C100033E948E853E40E9437070E941B086B0140
:100C2000770FEE08FF084AE0C701B601F7FE0EC0D5
:100C300041E06DE280EE91E00E940D036627772788
:100C4000CB016C197D098E099F094AE00E9486023A
:100C500080E10E9431019093390180933801E09145
:100C6000F301E23008F06BC0E150F0E0E052FE4FDB
:100C7000848980680E94600387E291E00E94790283
:100C80008091380190913901389EB001399E700DE4
:100C90001124072E000C880B990B0E94530820E0AA
:100CA00030EC4FE754E40E94A9072CE53FE842E20C
:100CB00050E40E94370720E030E040E251E40E9417
:100CC00058096B017C014B015C01AC019B010E9446
:100CD000C5098823B1F18CE291E00E9479020E945B
:100CE00043014B015C0188EEC82E83E0D82EE12C35
:100CF000F12C0E944301681979098A099B09683E11
:100D0000734081059105A8F321E0C21AD108E108DA
:100D1000F10888EE880E83E0981EA11CB11CC11456
:100D2000D104E104F10429F7209709F4FDCE0E94D3
:100D3000D201882309F4F8CE0E940000F5CEE1E04C
:100D400094CF26013701E89477F82FEF3FEF4FE774
:100D50005FE7C301B2010E94C50981110DC02FEFE9
:100D60003FEF4FE75FE7C301B2010E94A4071816E7
:100D70001CF480E391E0B1CF2FEF3FEF4FE75FE44A
:100D8000C701B6010E94030918161CF484E391E020
:100D9000A4CF2FEF3FEF4FE75FECC701B6010E94F2
:100DA000A40787FDF3CF20E030E0A901C701B60119
:100DB0000E94A40787FF0CC041E06DE280EE91E045
:100DC0000E940D0346015701B7FAB094B7F8B094EA
:100DD0002AE037ED43EA5BE3C501B4010E9438071E
:100DE0004B015C010E9422086B017C010E945108AA
:100DF0009B01AC01C501B4010E9437074B015C01A6
:100E00004AE0C701B6010E94860241E06EE280EE30
:100E100091E00E940D0320E030E040E251E4C50182
:100E2000B4010E9458094B015C010E9422086B0129
:100E3000F12CE12C4AE0C701B6010E948602C701ED
:100E4000B6010E9451089B01AC01C501B4010E948A
:100E5000370720E030E040E251E40E9458090E9448
:100E6000220890E080E04AE00E94860238CF505885
:100E7000BB27AA270E944F070C94C9080E94BB08F1
:100E800038F00E94C20820F039F49F3F19F426F48C
:100E90000C94B8080EF4E095E7FB0C94B208E92F27
:100EA0000E94DA0858F3BA17620773078407950798
:100EB00020F079F4A6F50C94FC080EF4E0950B2EC6
:100EC000BA2FA02D0B01B90190010C01CA01A0019C
:100ED0001124FF27591B99F0593F50F4503E68F1F7
:100EE0001A16F040A22F232F342F4427585FF3CF38
:100EF000469537952795A795F0405395C9F77EF409
:100F00001F16BA0B620B730B840BBAF09150A1F051
:100F1000FF0FBB1F661F771F881FC2F70EC0BA0FD7
:100F2000621F731F841F48F4879577956795B7955F
:100F3000F7959E3F08F0B0CF9395880F08F099275A
:100F4000EE0F9795879508950E948E0808F481E02A
:100F500008950E94BD070C94C9080E94C20858F069
:100F60000E94BB0840F029F45F3F29F00C94B208BE
:100F700051110C94FD080C94B8080E94DA0868F32B
:100F80009923B1F3552391F3951B550BBB27AA2742
:100F900062177307840738F09F5F5F4F220F331F7C
:100FA000441FAA1FA9F335D00E2E3AF0E0E832D044
:100FB00091505040E695001CCAF72BD0FE2F29D047
:100FC000660F771F881FBB1F261737074807AB0719
:100FD000B0E809F0BB0B802DBF01FF2793585F4F8E
:100FE0003AF09E3F510578F00C94B2080C94FD083D
:100FF0005F3FE4F3983ED4F3869577956795B79570
:10100000F7959F5FC9F7880F911D9695879597F97A
:101010000895E1E0660F771F881FBB1F62177307F3
:101020008407BA0720F0621B730B840BBA0BEE1F08
:1010300088F7E09508950E9422086894B1110C94F5
:10104000FD0808950E94E20888F09F5798F0B92F94
:101050009927B751B0F0E1F0660F771F881F991FED
:101060001AF0BA95C9F714C0B13091F00E94FC088B
:10107000B1E008950C94FC08672F782F8827B85F9B
:1010800039F0B93FCCF3869577956795B395D9F745
:101090003EF490958095709561957F4F8F4F9F4F4F
:1010A0000895E89409C097FB3EF49095809570955B
:1010B00061957F4F8F4F9F4F9923A9F0F92F96E9A4
:1010C000BB279395F695879577956795B795F11119
:1010D000F8CFFAF4BB0F11F460FF1BC06F5F7F4FB6
:1010E0008F4F9F4F16C0882311F096E911C07723C8
:1010F00021F09EE8872F762F05C0662371F096E8D1
:10110000862F70E060E02AF09A95660F771F881F9F
:10111000DAF7880F9695879597F90895990F000843
:10112000550FAA0BE0E8FEEF16161706E807F907B9
:10113000C0F012161306E407F50798F0621B730B54
:10114000840B950B39F40A2661F0232B242B252BD5
:1011500021F408950A2609F4A140A6958FEF811D78
:10116000811D089597F99F6780E870E060E0089519
:101170009FEF80EC089500240A94161617061806AF
:101180000906089500240A9412161306140605068B
:101190000895092E0394000C11F4882352F0BB0F1C
:1011A00040F4BF2B11F460FF04C06F5F7F4F8F4F7F
:1011B0009F4F089557FD9058440F551F59F05F3FBA
:1011C00071F04795880F97FB991F61F09F3F79F069
:1011D00087950895121613061406551FF2CF4695EB
:1011E000F1DF08C0161617061806991FF1CF86956D
:1011F0007105610508940895E894BB276627772751
:10120000CB0197F908950E948E0808F48FEF089596
:1012100016F00C94CA090C94B80868940C94B2089F
:101220000E94E208A8F39923C1F3AEF3DF93CF93B2
:101230001F930F93FF92C92FDD2788232AF0219750
:10124000660F771F881FDAF720E030E040E85FEB99
:101250009FE3883920F0803E38F021968F770E94F6
:101260003807E8E6F0E004C00E943807E5E9F0E05E
:101270000E94D8098B01BE01EC01FB2E6F5771094A
:101280007595771F880B990B0E94530828E132E768
:1012900041E35FE30E946B09AF2D9801AE01FF901F
:1012A0000F911F91CF91DF910E944F070C94C908B5
:1012B0000E946B090C94C9080E94BB0838F00E9478
:1012C000C20820F0952311F00C94B2080C94B808D1
:1012D00011240C94FD080E94DA0870F3959FC1F365
:1012E000950F50E0551F629FF001729FBB27F00DD4
:1012F000B11D639FAA27F00DB11DAA1F649F662729
:10130000B00DA11D661F829F2227B00DA11D621F77
:10131000739FB00DA11D621F839FA00D611D221F31
:10132000749F3327A00D611D231F849F600D211D15
:10133000822F762F6A2F11249F5750409AF0F1F098
:1013400088234AF0EE0FFF1FBB1F661F771F881F01
:1013500091505040A9F79E3F510580F00C94B2087F
:101360000C94FD085F3FE4F3983ED4F3869577959F
:101370006795B795F795E7959F5FC1F7FE2B880FA7
:10138000911D9695879597F908950E948E08880B70
:10139000990B08959F3F31F0915020F487957795F0
:1013A0006795B795880F911D9695879597F908953C
:1013B000DF93CF931F930F93FF92EF92DF927B0106
:1013C0008C01689406C0DA2EEF010E946B09FE01C1
:1013D000E894A5912591359145915591A6F3EF019A
:1013E0000E944F07FE019701A801DA9469F7DF9088
:1013F000EF90FF900F911F91CF91DF910895A1E29F
:101400001A2EAA1BBB1BFD010DC0AA1FBB1FEE1F7E
:10141000FF1FA217B307E407F50720F0A21BB30BC9
:10142000E40BF50B661F771F881F991F1A9469F745
:1014300060957095809590959B01AC01BD01CF01A1
:101440000895EE0FFF1F0590F491E02D0994F89494
:10145000FFCF0000803F00000000080268019501F6
:101460005502C601A401B801000000000C04680187
:101470007602750254313D200049313D20006E61F5
:0A1480006E00696E66006F7666006C
:107E0000112484B714BE81FFF0D085E080938100F7
:107E100082E08093C00088E18093C10086E0809377
:107E2000C20080E18093C4008EE0C9D0259A86E02C
:107E300020E33CEF91E0309385002093840096BBD3
:107E4000B09BFECF1D9AA8958150A9F7CC24DD24C4
:107E500088248394B5E0AB2EA1E19A2EF3E0BF2EE7
:107E6000A2D0813461F49FD0082FAFD0023811F036
:107E7000013811F484E001C083E08DD089C08234E0
:107E800011F484E103C0853419F485E0A6D080C0E4
:107E9000853579F488D0E82EFF2485D0082F10E0AE
:107EA000102F00270E291F29000F111F8ED06801E7
:107EB0006FC0863521F484E090D080E0DECF843638
:107EC00009F040C070D06FD0082F6DD080E0C81688
:107ED00080E7D80618F4F601B7BEE895C0E0D1E017
:107EE00062D089930C17E1F7F0E0CF16F0E7DF06D8
:107EF00018F0F601B7BEE89568D007B600FCFDCFD4
:107F0000A601A0E0B1E02C9130E011968C91119780
:107F100090E0982F8827822B932B1296FA010C0160
:107F200087BEE89511244E5F5F4FF1E0A038BF0790
:107F300051F7F601A7BEE89507B600FCFDCF97BE46
:107F4000E89526C08437B1F42ED02DD0F82E2BD052
:107F50003CD0F601EF2C8F010F5F1F4F84911BD097
:107F6000EA94F801C1F70894C11CD11CFA94CF0C13
:107F7000D11C0EC0853739F428D08EE10CD085E9AC
:107F80000AD08FE07ACF813511F488E018D01DD067
:107F900080E101D065CF982F8091C00085FFFCCF94
:107FA0009093C60008958091C00087FFFCCF809118
:107FB000C00084FD01C0A8958091C6000895E0E648
:107FC000F0E098E1908380830895EDDF803219F02E
:107FD00088E0F5DFFFCF84E1DECF1F93182FE3DFCA
:107FE0001150E9F7F2DF1F91089580E0E8DFEE27F6
:047FF000FF270994CA
:027FFE00040479
:00000001FF
