:020000040000FA
:100000000C94DA000C9402010C9402010C9402018D
:100010000C9402010C9402010C9402010C94020154
:100020000C9402010C9402010C9402010C94020144
:100030000C9402010C9402010C9402010C94020134
:100040000C9470030C9402010C9402010C940201B4
:100050000C9402010C9402010C9402010C94020114
:100060000C9402010C94020100407A10F35A00A093
:10007000724E18090010A5D4E80000E87648170071
:1000800000E40B54020000CA9A3B000000E1F505B1
:10009000000080969800000040420F000000A086FB
:1000A00001000000102700000000E803000000002D
:1000B0006400000000000A000000000001000000D1
:1000C00000002C76D888DC674F0823DFC1DFAE59EB
:1000D000E1B1B796E5E3E453C63AE651997696E87E
:1000E000E6C28426EB898C9B62ED407C6FFCEFBC02
:1000F0009C9F40F2BAA56FA5F490055A2AF75C932D
:100100006B6CF9676DC11BFCE0E40D47FEF520E662
:10011000B500D0ED902E0300943577050080841E45
:10012000080000204E0A000000C80C333333330FA0
:10013000986E12831141EF8D2114893BE65516CF3D
:10014000FEE6DB18D1844B381BF77C1D901DA4BB49
:10015000E424203284725E228100C9F124ECA1E5FE
:100160003D2700000000240027002A0000000000B6
:10017000250028002B0004040404040404040202E3
:100180000202020203030303030301020408102016
:100190004080010204081020010204081020000021
:1001A0000008000201000003040700000000000036
:1001B0000000E20511241FBECFEFD8E0DEBFCDBFA7
:1001C00011E0A0E0B1E0E4EEF5E102C005900D928F
:1001D000AC32B107D9F721E0ACE2B1E001C01D9229
:1001E000AC35B207E1F710E0CAEDD0E004C02197CA
:1001F000FE010E94EA0AC93DD107C9F70E94BA036D
:100200000C94F00A0C940000AF92BF92CF92DF9250
:10021000EF92FF920F931F93CF93DF936C017B01BB
:100220008B01040F151FEB015E01AE18BF08C0174C
:10023000D10759F06991D601ED91FC910190F081BF
:10024000E02DC6010995892B79F7C501DF91CF9182
:100250001F910F91FF90EF90DF90CF90BF90AF90E4
:10026000089590E0FC01E256FE4F2491FC01E65710
:10027000FE4F3491FC01EA58FE4FE491EE23C9F0A1
:10028000222339F0233001F1A8F4213019F1223072
:1002900029F1F0E0EE0FFF1FE459FE4FA591B49154
:1002A0008FB7F894EC91611126C030953E233C93B2
:1002B0008FBF08952730A9F02830C9F0243049F7BE
:1002C000809180008F7D03C0809180008F77809324
:1002D0008000DFCF84B58F7784BDDBCF84B58F7D81
:1002E000FBCF8091B0008F778093B000D2CF809108
:1002F000B0008F7DF9CF3E2BDACFCF93DF9390E024
:10030000FC01E657FE4F24918A589E4FFC018491D0
:100310008823D1F090E0880F991FFC01EE59FE4F21
:10032000A591B491FC01E459FE4FC591D49161119E
:100330000EC09FB7F8948C91E22FE0958E238C939A
:100340002881E223E8839FBFDF91CF9108958FB783
:10035000F894EC91E22BEC938FBFF6CF3FB7F89473
:100360008091310190913201A0913301B09134011B
:1003700026B5A89B05C02F3F19F00196A11DB11D00
:100380003FBFBA2FA92F982F8827BC01CD01620F3C
:10039000711D811D911D42E0660F771F881F991FF7
:1003A0004A95D1F70895089590E080E00895FC0102
:1003B00001900020E9F73197AF01481B590BBC01B0
:1003C00084E491E00C9404018F929F92AF92BF92CB
:1003D0000F931F93CF93DF93CDB7DEB7A1970FB6DF
:1003E000F894DEBF0FBECDBF19A2423008F44AE038
:1003F0008E010F5D1F4F842E912CB12CA12CA501D5
:1004000094010E94C80AE62FB901CA01EA30F4F447
:10041000E05DD801EE938D01232B242B252B79F75A
:1004200090E080E0109719F0CD010E94D701A196CD
:100430000FB6F894DEBF0FBECDBFDF91CF911F91F5
:100440000F91BF90AF909F908F900895E95CE1CF9E
:10045000CF93DF93EC0160E08E810E94310161E077
:100460008E810E94310160E08E810E9431018BE813
:1004700091E00197F1F7DF91CF910895CF92DF924C
:10048000EF92FF920F931F93CF93DF936C017C0148
:1004900087E0E80EF11CD0E0C0E0062F10E0B801C4
:1004A0000C2E02C0759567950A94E2F76170F7010A
:1004B00081917F010E9431012196C430D10579F7E5
:1004C000C601DF91CF911F910F91FF90EF90DF90C8
:1004D000CF900C942802CF92DF92EF92FF920F936D
:1004E0001F93CF93DF93EC01F62E642F8C810E9433
:1004F00031018D818F3F19F060E00E9431010F2D95
:1005000010E08F8584FF25C06E0187E0C80ED11CE6
:10051000F12CE12CB8010E2C02C0759567950A9458
:10052000E2F76170F60181916F010E943101FFEFE6
:10053000EF1AFF0A88E0E816F10461F7CE01DF91B7
:10054000CF911F910F91FF90EF90DF90CF900C947F
:100550002802B80184E0759567958A95E1F7CE0188
:100560000E943E026F2DCE01DF91CF911F910F911E
:10057000FF90EF90DF90CF900C943E0240E0682F08
:1005800084E491E00C946B02CF93DF93823029F4E2
:10059000909153019860909353018093570110926A
:1005A000580180E48093590180E180935A0180E5ED
:1005B00080935B0161E0809148010E947D01809100
:1005C00049018F3F19F061E00E947D0161E0809157
:1005D0004A010E947D01C4E4D1E09E0124543140CF
:1005E0008091530184FD0BC084E090E02196281790
:1005F000390744F461E08E810E947D01EECF88E0EE
:1006000090E0F4CF8BE39DE00197F1F760E08091FB
:1006100048010E94310160E080914A010E9431014D
:10062000809149018F3F19F060E00E943101809173
:10063000530184FD39C063E084E491E00E943E02EE
:10064000CBE4D6E4CE010197F1F763E084E491E0D6
:100650000E943E022197F1F763E084E491E00E945A
:100660003E0283E592E00197F1F762E084E491E0D5
:100670000E943E028091530180620E94BE0284E08B
:10068000809354018CE00E94BE0281E00E94BE0271
:100690008BE39FE10197F1F782E08093550186E0BB
:1006A000DF91CF910C94BE0280620E94BE028BE467
:1006B00096E40197F1F78091530180620E94BE0297
:1006C00083E592E00197F1F78091530180620E94E7
:1006D000BE02D0CF41E00E946B0281E090E008951D
:1006E0001F920F920FB60F9211242F933F938F9367
:1006F0009F93AF93BF9380912D0190912E01A09174
:100700002F01B091300130912C0123E0230F2D37C0
:1007100058F50196A11DB11D20932C0180932D0148
:1007200090932E01A0932F01B0933001809131015D
:1007300090913201A0913301B09134010196A11D35
:10074000B11D8093310190933201A0933301B09396
:100750003401BF91AF919F918F913F912F910F9055
:100760000FBE0F901F90189526E8230F0296A11D2B
:10077000B11DD2CFCF93DF93CDB7DEB728970FB699
:10078000F894DEBF0FBECDBF789484B5826084BD7F
:1007900084B5816084BD85B5826085BD85B5816085
:1007A00085BD80916E00816080936E001092810003
:1007B00080918100826080938100809181008160BE
:1007C000809381008091800081608093800080917F
:1007D000B10084608093B1008091B000816080930B
:1007E000B00080917A00846080937A0080917A00D2
:1007F000826080937A0080917A00816080937A0091
:1008000080917A00806880937A001092C10082E023
:100810000E94C40280E191E00E94D70160E08EE076
:100820000E947D0190E0292E90E0392E20E4209353
:100830007C0080917A00806480937A0080917A00B5
:1008400086FDFCCF8091780090917900A5E0A89F6B
:10085000B001A99F700D1124072E000C880B990B75
:100860000E94A10920E030EC4FE754E40E94FE080A
:100870006B017C0120910001309101014091020146
:10088000509103010E94560AA70196010E94560A40
:10089000A70196010E94560AA70196010E94560AD6
:1008A000A70196010E94560AA70196010E94560AC6
:1008B0002FE135E84BEC5EE30E94560A2B013C0128
:1008C000A7019601C701B6010E94560A69837A837F
:1008D0008B839C839B01AC01C701B6010E94560A21
:1008E0006D837E838F8398879B01AC01C701B6011E
:1008F0000E94560A4B015C0182E090E09093430114
:100900008093420180E090E0A0E8BFE38093000183
:1009100090930101A0930201B0930301A5019401FA
:10092000C701B6010E94560A27E635ED41EC50ECAE
:100930000E94560AA30192010E948D082B013C01DE
:1009400020EB32EF42E152E4C501B4010E94560AA5
:100950009B01AC01C301B2010E948D084B015C01F7
:100960002AE037E544EE52EC6D817E818F819885D7
:100970000E94560A9B01AC01C501B4010E948D087A
:100980004B015C0125E83BE643E453E469817A814D
:100990008B819C810E94560A9B01AC01C501B40168
:1009A0000E948D084B015C0123EC35EF47E453ECCA
:1009B000C701B6010E94560A9B01AC01C501B401F2
:1009C0000E948D0821E73DEF41E153E40E948D082C
:1009D0002DEC3CEC4CEC5DE30E948D0860933E01F5
:1009E00070933F01809340019093410105E311E032
:1009F00021E043E00E940006E0915701E23008F058
:100A00004BC0E150F0E0EC5BFE4F848980680E94AF
:100A1000BE02C0903E01D0903F01E0904001F090B6
:100A20004101A7019601C701B6010E94C30A8823AC
:100A3000A9F18CE191E00E94D70188E291E00E9447
:100A4000D7010E94AE014B015C018AE0C82ED12C77
:100A5000E12CF12C0E94AE01681979098A099B09E1
:100A6000683E734081059105A8F391E0C91AD10849
:100A7000E108F108A8EE8A0EA3E09A1EA11CB11CA1
:100A8000C114D104E104F10429F72114310409F45B
:100A9000CDCE0E940000CACEE1E0B4CF460157019E
:100AA000E894B7F82FEF3FEF4FE75FE7C501B401D8
:100AB0000E94C30A81110DC02FEF3FEF4FE75FE7A0
:100AC000C501B4010E94F90818161CF480E291E0F7
:100AD000B2CF2FEF3FEF4FE75FE4C701B6010E94AF
:100AE000510A18161CF484E291E0A5CF2FEF3FEFD6
:100AF0004FE75FECC701B6010E94F90887FDF3CF0D
:100B000020E030E0A901C701B6010E94F90887FF83
:100B10000AC041E06DE284E491E00E946B02F7FAC2
:100B2000F094F7F8F0942AE037ED43EA5BE3C7016D
:100B3000B6010E948D084B015C010E9470096B0197
:100B40007C010E949F099B01AC01C501B4010E9478
:100B50008C084B015C014AE0C701B6010E94E40128
:100B600041E06EE284E491E00E946B0220E030E01C
:100B700040E251E4C501B4010E94560A4B015C01F8
:100B80000E9470096B01F12CE12C4AE0C701B6010B
:100B90000E94E401C701B6010E949F099B01AC01BC
:100BA000C501B4010E948C0820E030E040E251E42D
:100BB0000E94560A0E94700990E080E04AE00E947C
:100BC000E4013BCFE4E4F1E01382128288E091E09B
:100BD000918380838CE084838FEF85838BE0868391
:100BE00085E0878384E0808783E0818782E0828755
:100BF0001386148615861686178681E00C94C40227
:100C0000EF920F931F93CF93DF93E80134E047FDFA
:100C100034E1042E000C550B57FF03C0519541954C
:100C20005109E32E022F242FAE010E941E06CE0191
:100C3000DF91CF911F910F91EF900895A9E0B0E05F
:100C4000E4E2F6E00C945B086A01F22EB02E102F5D
:100C5000FBE3AF2EA01608F41BE31F5F012F27E074
:100C6000AE014F5F5F4F0E947D07BC018981982FC5
:100C70009970913009F43FC09BE2E1FC04C09E2DC5
:100C80009170E0FC3AC05E2D5071E82FE87083FF50
:100C900046C084E0911101C083E0EF2DE81B8F1561
:100CA00008F0E0E0D6018E2F20E2552351F1992380
:100CB00029F0D6019C93C60101966C0196012D5F27
:100CC0003F4FE2FE24C08EE4D6018C9391E411964E
:100CD0009C93119712968C93D9018E2F90E28111DB
:100CE0001BC0E20FF32FF11D10828EEF9FEF2996AC
:100CF000ECE00C9477089DE2C6CF90E2C4CF2D9330
:100D000081508111FCCFCE0ED11CE0E0D0CF8EE619
:100D1000D6018C9391E6DBCF9D938150E0CF482F95
:100D2000447082FF3DC084E0911101C083E08F15C3
:100D300010F4EF2DE81BD6018E2F20E2552309F188
:100D4000992329F0D6019C93C60101966C01960166
:100D50002D5F3F4FE2FE1BC089E4D6018C938EE4E9
:100D600011968C93119786E412968C93D9018E2F4D
:100D700090E2882309F4B5CF9D938150FACF2D934B
:100D800081508111FCCFCE0ED11CE0E0D9CF89E695
:100D9000D6018C938EE611968C93119786E6E4CF5C
:100DA0009B0177FF02C030E020E0A1E0B0E09111AC
:100DB00002C0B0E0A0E0F9013196AE0FBF1F8B2C4E
:100DC000912CBB2009F461C05401EFEFAE1ABE0AAA
:100DD000AA0DBB1DFA161B0619F014F04F2D4A1B65
:100DE000511188C0E3FC59C07601A42FB0E2A111D3
:100DF0004FC0C40ED11C992309F45BC040E0D6015A
:100E00001196F60190836D01552309F448C0012F16
:100E1000060F9A81582F507184FF03C0913309F453
:100E2000015010160CF047C0093008F008E0EEE25F
:100E3000FE2E5B01A01AB10885019194819491085E
:100E40002F3F320729F4D601FC92F60131966F014B
:100E50006217730794F1021713077CF5DB01A21BDD
:100E6000B30BAA24A394B12CAC0EBD1EAA0DBB1DBE
:100E700011968C9121503109D6011196281539050A
:100E8000F4F0F60180836D01DBCFB12CA12CA0CF53
:100E9000F701B1937F01A150AACF9111B0CFD60134
:100EA000942F50E302C05D9391509111FCCFC40E7A
:100EB000D11C40E0ACCF01E0BACF80E3DBCF6217BA
:100EC000730731F4963388F4953311F4552369F0A0
:100ED000F6018083FD01842F90E2811108C0A40FE8
:100EE000B11D1C9290E080E002CF81E3F1CF91939D
:100EF0008150F3CF911183CF8ACF283008F027E0BB
:100F00003327DA01990F311D87FD91600096610545
:100F1000710539F432602E5F3D9330E32A95E1F795
:100F200008959F3F30F080387105610509F03C5FFE
:100F30003C5F3D93913008F08068911DDF93CF9323
:100F40001F930F93FF92EF92192F987F9695E92F99
:100F500096959695E90FFF27EE53FF4F9927332774
:100F6000EE24FF24A701E70105900894079428F4D4
:100F7000360FE71EF81E491F511D660F771F881F89
:100F8000991F0694A1F70590079428F4E70EF81E20
:100F9000491F561FC11D770F881F991F661F069492
:100FA000A1F70590079428F4F80E491F561FC71F94
:100FB000D11D880F991F661F771F0694A1F7059012
:100FC000079420F4490F561FC71FD81F990F661F9B
:100FD000771F881F0694A9F784911095177041F028
:100FE000D695C79557954795F794E7941A95C1F705
:100FF000E8E6F0E06894159015913591659195912A
:1010000005907FE27395E118F10A430B560BC90B6B
:10101000D009C0F7E10CF11E431F561FC91FD01D98
:101020007EF4703311F48A95E6CFE894015030F0E5
:10103000080F0AF40027021708F4202F2395022F27
:101040007A3328F079E37D932A95E9F710C07D93F0
:101050002A9589F60694979567953795179517946D
:10106000E118F10A430B560BC90BD00998F02395F0
:101070007E9173957A3308F070E37C932013B8F770
:101080007E9170617D9330F0839571E37D9370E381
:101090002A95E1F71124EF90FF900F911F91CF91C6
:1010A000DF91992787FD909508952F923F924F9257
:1010B0005F926F927F928F929F92AF92BF92CF92E8
:1010C000DF92EF92FF920F931F93CF93DF93CDB7F1
:1010D000DEB7CA1BDB0B0FB6F894DEBF0FBECDBF69
:1010E00009942A88398848885F846E847D848C843A
:1010F0009B84AA84B984C884DF80EE80FD800C8143
:101100001B81AA81B981CE0FD11D0FB6F894DEBF25
:101110000FBECDBFED0108955058BB27AA270E94EE
:10112000A4080C94170A0E94090A38F00E94100AB9
:1011300020F039F49F3F19F426F40C94060A0EF4BB
:10114000E095E7FB0C94000AE92F0E94280A58F367
:10115000BA17620773078407950720F079F4A6F59C
:101160000C944A0A0EF4E0950B2EBA2FA02D0B0119
:10117000B90190010C01CA01A0011124FF27591BDC
:1011800099F0593F50F4503E68F11A16F040A22FE2
:10119000232F342F4427585FF3CF46953795279553
:1011A000A795F0405395C9F77EF41F16BA0B620B52
:1011B000730B840BBAF09150A1F0FF0FBB1F661F99
:1011C000771F881FC2F70EC0BA0F621F731F841FDC
:1011D00048F4879577956795B795F7959E3F08F002
:1011E000B0CF9395880F08F09927EE0F97958795C4
:1011F00008950E94DC0908F481E008950E94120914
:101200000C94170A0E94100A58F00E94090A40F034
:1012100029F45F3F29F00C94000A51110C944B0AF9
:101220000C94060A0E94280A68F39923B1F3552307
:1012300091F3951B550BBB27AA27621773078407E9
:1012400038F09F5F5F4F220F331F441FAA1FA9F37F
:1012500035D00E2E3AF0E0E832D091505040E6956D
:10126000001CCAF72BD0FE2F29D0660F771F881FCE
:10127000BB1F261737074807AB07B0E809F0BB0BC1
:10128000802DBF01FF2793585F4F3AF09E3F5105D5
:1012900078F00C94000A0C944B0A5F3FE4F3983EFC
:1012A000D4F3869577956795B795F7959F5FC9F7BE
:1012B000880F911D9695879597F90895E1E0660F3F
:1012C000771F881FBB1F621773078407BA0720F0B8
:1012D000621B730B840BBA0BEE1F88F7E095089521
:1012E0000E94300A88F09F5798F0B92F9927B7517C
:1012F000B0F0E1F0660F771F881F991F1AF0BA95BA
:10130000C9F714C0B13091F00E944A0AB1E00895C3
:101310000C944A0A672F782F8827B85F39F0B93FB5
:10132000CCF3869577956795B395D9F73EF490956C
:101330008095709561957F4F8F4F9F4F0895E894EA
:1013400009C097FB3EF490958095709561957F4F0D
:101350008F4F9F4F9923A9F0F92F96E9BB279395BB
:10136000F695879577956795B795F111F8CFFAF4CB
:10137000BB0F11F460FF1BC06F5F7F4F8F4F9F4FFC
:1013800016C0882311F096E911C0772321F09EE85A
:10139000872F762F05C0662371F096E8862F70E0C0
:1013A00060E02AF09A95660F771F881FDAF7880F9A
:1013B0009695879597F90895990F0008550FAA0BF0
:1013C000E0E8FEEF16161706E807F907C0F0121658
:1013D0001306E407F50798F0621B730B840B950B5B
:1013E00039F40A2661F0232B242B252B21F40895B0
:1013F0000A2609F4A140A6958FEF811D811D08954D
:1014000097F99F6780E870E060E008959FEF80ECB7
:10141000089500240A94161617061806090608955A
:1014200000240A9412161306140605060895092EC0
:101430000394000C11F4882352F0BB0F40F4BF2B2F
:1014400011F460FF04C06F5F7F4F8F4F9F4F08956F
:1014500057FD9058440F551F59F05F3F71F0479565
:10146000880F97FB991F61F09F3F79F0879508954A
:10147000121613061406551FF2CF4695F1DF08C069
:10148000161617061806991FF1CF86957105610586
:1014900008940895E894BB2766277727CB0197F92E
:1014A00008950E94DC0908F48FEF08950E94690AEC
:1014B0000C94170A0E94090A38F00E94100A20F0C2
:1014C000952311F00C94000A0C94060A11240C9434
:1014D0004B0A0E94280A70F3959FC1F3950F50E0C4
:1014E000551F629FF001729FBB27F00DB11D639FD6
:1014F000AA27F00DB11DAA1F649F6627B00DA11D7C
:10150000661F829F2227B00DA11D621F739FB00D21
:10151000A11D621F839FA00D611D221F749F332791
:10152000A00D611D231F849F600D211D822F762F2A
:101530006A2F11249F5750409AF0F1F088234AF007
:10154000EE0FFF1FBB1F661F771F881F9150504073
:10155000A9F79E3F510580F00C94000A0C944B0AA9
:101560005F3FE4F3983ED4F3869577956795B795FA
:10157000F795E7959F5FC1F7FE2B880F911D969514
:10158000879597F908950E94DC09880B990B0895B7
:10159000A1E21A2EAA1BBB1BFD010DC0AA1FBB1F77
:1015A000EE1FFF1FA217B307E407F50720F0A21BE9
:1015B000B30BE40BF50B661F771F881F991F1A9456
:1015C00069F760957095809590959B01AC01BD0180
:1015D000CF010895EE0FFF1F0590F491E02D0994BF
:1015E000F894FFCF0000803F000000006A03040170
:1015F000D401D30154656D702E20416D622E3A00E6
:101600006E616E00696E66006F76660020430000B2
:107E0000112484B714BE81FFF0D085E080938100F7
:107E100082E08093C00088E18093C10086E0809377
:107E2000C20080E18093C4008EE0C9D0259A86E02C
:107E300020E33CEF91E0309385002093840096BBD3
:107E4000B09BFECF1D9AA8958150A9F7CC24DD24C4
:107E500088248394B5E0AB2EA1E19A2EF3E0BF2EE7
:107E6000A2D0813461F49FD0082FAFD0023811F036
:107E7000013811F484E001C083E08DD089C08234E0
:107E800011F484E103C0853419F485E0A6D080C0E4
:107E9000853579F488D0E82EFF2485D0082F10E0AE
:107EA000102F00270E291F29000F111F8ED06801E7
:107EB0006FC0863521F484E090D080E0DECF843638
:107EC00009F040C070D06FD0082F6DD080E0C81688
:107ED00080E7D80618F4F601B7BEE895C0E0D1E017
:107EE00062D089930C17E1F7F0E0CF16F0E7DF06D8
:107EF00018F0F601B7BEE89568D007B600FCFDCFD4
:107F0000A601A0E0B1E02C9130E011968C91119780
:107F100090E0982F8827822B932B1296FA010C0160
:107F200087BEE89511244E5F5F4FF1E0A038BF0790
:107F300051F7F601A7BEE89507B600FCFDCF97BE46
:107F4000E89526C08437B1F42ED02DD0F82E2BD052
:107F50003CD0F601EF2C8F010F5F1F4F84911BD097
:107F6000EA94F801C1F70894C11CD11CFA94CF0C13
:107F7000D11C0EC0853739F428D08EE10CD085E9AC
:107F80000AD08FE07ACF813511F488E018D01DD067
:107F900080E101D065CF982F8091C00085FFFCCF94
:107FA0009093C60008958091C00087FFFCCF809118
:107FB000C00084FD01C0A8958091C6000895E0E648
:107FC000F0E098E1908380830895EDDF803219F02E
:107FD00088E0F5DFFFCF84E1DECF1F93182FE3DFCA
:107FE0001150E9F7F2DF1F91089580E0E8DFEE27F6
:047FF000FF270994CA
:027FFE00040479
:00000001FF
