:020000040000FA
:100000000C948A000C94B2000C94B2000C94B200D0
:100010000C94B2000C94B2000C94B2000C94B20098
:100020000C94B2000C94B2000C94B2000C94B20088
:100030000C94B2000C94B2000C94B2000C94B20078
:100040000C9401050C94B2000C94B2000C94B20014
:100050000C94B2000C94B2000C94B2000C94B20058
:100060000C94B2000C94B20008000000BE92244927
:10007000123EABAAAA2ABECDCCCC4C3E00000080DA
:10008000BEABAAAAAA3E00000000BF000000803F4D
:100090000000000000084178D3BB4387D1133D190D
:1000A0000E3CC3BD4282AD2B3E68EC8276BED98F3A
:1000B000E1A93E4C80EFFFBE01C4FF7F3F0000007E
:1000C000000000000000240027002A0000000000BB
:1000D000250028002B000404040404040404020284
:1000E00002020202030303030303010204081020B7
:1000F00040800102040810200102040810200000C2
:1001000000080002010000030407000000000000D6
:100110000000540811241FBECFEFD8E0DEBFCDBFD2
:1001200011E0A0E0B1E0E8E5F7E102C005900D9232
:10013000A434B107D9F721E0A4E4B1E001C01D92D5
:10014000AF38B207E1F710E0CAE8D0E004C0219769
:10015000FE010E94A40BC938D107C9F70E944B05C4
:100160000C94AA0B0C94000081E480937C00809195
:100170007A00806480937A0080917A0086FDFCCFBB
:100180008091780090917900089590E0FC01E25010
:10019000FF4F2491FC01E651FF4F3491FC01EA52DC
:1001A000FF4FE491EE23C9F0222339F0233001F10F
:1001B000A8F4213019F1223029F1F0E0EE0FFF1FF1
:1001C000E453FF4FA591B4918FB7F894EC9161116E
:1001D00026C030953E233C938FBF08952730A9F069
:1001E0002830C9F0243049F7809180008F7D03C00A
:1001F000809180008F7780938000DFCF84B58F77E8
:1002000084BDDBCF84B58F7DFBCF8091B0008F772D
:100210008093B000D2CF8091B0008F7DF9CF3E2B7C
:10022000DACFCF93DF9390E0FC01E651FF4F2491AA
:100230008A529F4FFC0184918823D1F090E0880F6F
:10024000991FFC01EE53FF4FA591B491FC01E453BB
:10025000FF4FC591D49161110EC09FB7F8948C9156
:10026000E22FE0958E238C932881E223E8839FBFC1
:10027000DF91CF9108958FB7F894EC91E22BEC9336
:100280008FBFF6CF3FB7F8948091730190917401BE
:10029000A0917501B091760126B5A89B05C02F3FAE
:1002A00019F00196A11DB11D3FBFBA2FA92F982F9C
:1002B0008827BC01CD01620F711D811D911D42E097
:1002C000660F771F881F991F4A95D1F708958F925F
:1002D0009F92AF92BF92CF92DF92EF92FF924B012B
:1002E0005C010E9442016B017C010E9442016C1979
:1002F0007D098E099F09683E734081059105A8F329
:1003000021E0821A9108A108B10888EEC80E83E0A6
:10031000D81EE11CF11C81149104A104B10429F739
:10032000FF90EF90DF90CF90BF90AF909F908F9015
:100330000895AF92BF92CF92DF92EF92FF920F9308
:100340001F93CF93DF936C017B018B01040F151F6B
:10035000EB015E01AE18BF08C017D10759F06991D3
:10036000D601ED91FC910190F081E02DC601099537
:10037000892B79F7C501DF91CF911F910F91FF90E4
:10038000EF90DF90CF90BF90AF900895089590E0E8
:1003900080E00895FC0101900020E9F73197AF015A
:1003A000481B590BBC0187E791E00C9499018F928F
:1003B0009F92AF92BF920F931F93CF93DF93CDB7CE
:1003C000DEB7A1970FB6F894DEBF0FBECDBF19A25E
:1003D000423008F44AE08E010F5D1F4F842E912CAD
:1003E000B12CA12CA50194010E944F0BE62FB9015D
:1003F000CA01EA30F4F4E05DD801EE938D01232BBD
:10040000242B252B79F790E080E0109719F0CD018F
:100410000E94CA01A1960FB6F894DEBF0FBECDBFF1
:10042000DF91CF911F910F91BF90AF909F908F90D0
:100430000895E95CE1CFCF93DF93EC0160E08E811A
:100440000E94C50061E08E810E94C50060E08E813F
:100450000E94C5008BE891E00197F1F7DF91CF9101
:100460000895CF92DF92EF92FF920F931F93CF9355
:10047000DF936C017C0187E0E80EF11CD0E0C0E066
:10048000062F10E0B8010C2E02C0759567950A94EE
:10049000E2F76170F70181917F010E94C50021960A
:1004A000C430D10579F7C601DF91CF911F910F912B
:1004B000FF90EF90DF90CF900C941B02CF92DF92D1
:1004C000EF92FF920F931F93CF93DF93EC01F62EE1
:1004D000642F8C810E94C5008D818F3F19F060E0F0
:1004E0000E94C5000F2D10E08F8584FF25C06E018E
:1004F00087E0C80ED11CF12CE12CB8010E2C02C0F3
:10050000759567950A94E2F76170F60181916F0124
:100510000E94C500FFEFEF1AFF0A88E0E816F10419
:1005200061F7CE01DF91CF911F910F91FF90EF9076
:10053000DF90CF900C941B02B80184E0759567950D
:100540008A95E1F7CE010E9431026F2DCE01DF9135
:10055000CF911F910F91FF90EF90DF90CF900C946F
:10056000310240E0682F87E791E00C945E02CF9360
:10057000DF93613029F09091860198609093860115
:1005800060938A0110928B0190E490938C01809388
:100590008D01805C80938E0161E080917B010E94DF
:1005A000110180917C018F3F19F061E00E941101DF
:1005B00061E080917D010E941101C7E7D1E09E01B9
:1005C000275731408091860184FD0BC084E090E084
:1005D00021962817390744F461E08E810E941101A9
:1005E000EECF88E090E0F4CF8BE39DE00197F1F748
:1005F00060E080917B010E94C50060E080917D01F8
:100600000E94C50080917C018F3F19F060E00E943C
:10061000C5008091860184FD39C063E087E791E0E1
:100620000E943102CBE4D6E4CE010197F1F763E0FA
:1006300087E791E00E9431022197F1F763E087E7B5
:1006400091E00E94310283E592E00197F1F762E0C8
:1006500087E791E00E9431028091860180620E94CA
:10066000B10284E0809387018CE00E94B10281E0B6
:100670000E94B1028BE39FE10197F1F782E0809342
:10068000880186E0DF91CF910C94B10280620E94D4
:10069000B1028BE496E40197F1F7809186018062C4
:1006A0000E94B10283E592E00197F1F78091860103
:1006B00080620E94B102D0CF90918A01691710F038
:1006C0006FEF690FE62FF0E0E958FE4F9489890F2C
:1006D00080680C94B10241E00E945E0281E090E0EB
:1006E00008958F929F92AF92BF92CF92DF92EF9236
:1006F000FF92BC01990F880B990B0E948F099B01F7
:10070000AC0160E070E080E894E40E94E50820E03D
:1007100030E040E85FE30E9473080E944C0A9B01AE
:10072000AC016EE87DE583E191E40E9473086B0102
:100730007C01AC019B010E94940AA70196010E94D2
:10074000940A4B015C018092000190920101A092F9
:100750000201B09203012DE435EB4BE759E3C701E9
:10076000B6010E94940A2BE73DEC41E95AE30E944E
:1007700074086B017C012DE730ED48E253E3C501BD
:10078000B4010E94940A9B01AC01C701B6010E940A
:1007900074089B01AC0160E070E080E89FE30E9478
:1007A000E50823E333E948E853E40E9473080E9414
:1007B00057096B01770FEE08FF084AE0C701B60141
:1007C000F7FE0EC041E06DE287E791E00E945E0215
:1007D00066277727CB016C197D098E099F094AE0AE
:1007E0000E94D70160E070E0CB01FF90EF90DF90B6
:1007F000CF90BF90AF909F908F9008954F925F924F
:100800006F927F928F929F92AF92BF92CF92DF9220
:10081000EF92FF920F931F93CF936B017C01742E85
:10082000AC019B010E94010B882399F080E191E0CB
:10083000CF911F910F91FF90EF90DF90CF90BF90DD
:10084000AF909F908F907F906F905F904F900C949F
:10085000CA0146015701E894B7F82FEF3FEF4FE781
:100860005FE7C501B4010E94010B81110DC02FEF9C
:100870003FEF4FE75FE7C501B4010E94E00818169B
:100880001CF484E191E0D4CF2FEF3FEF4FE75FE41A
:10089000C701B6010E943F0A18161CF488E191E0D6
:1008A000C7CF2FEF3FEF4FE75FECC701B6010E94C4
:1008B000E00887FDF3CF20E030E0A901C701B601D1
:1008C0000E94E00810E000E087FF0CC041E06DE20C
:1008D00087E791E00E945E02F7FAF094F7F8F0944F
:1008E00001E010E0C0E060E070E080E09FE37C1693
:1008F00041F020E030E040E251E40E94E508CF5FA3
:10090000F6CFA70196010E9474084B015C010E947A
:100910005E092B013C014AE00E94D701080F191F14
:10092000CC23C9F1C301B2010E948D099B01AC0126
:10093000C501B4010E9473084B015C0141E06EE205
:1009400087E791E00E945E020F5F1F4FC15018F1D0
:1009500020E030E040E251E4C501B4010E94940A75
:100960002B013C010E945E094B01B12CA12C4AE0F5
:10097000C501B4010E94D701080F191FC501B401B8
:100980000E948D099B01AC01C301B2010E94730852
:100990004B015C01DBCFC801CF911F910F91FF90FC
:1009A000EF90DF90CF90BF90AF909F908F907F900F
:1009B0006F905F904F90089525E0289FB001299F88
:1009C000700D1124072E000C880B990B0E948F09C3
:1009D00020E030EC4FE754E40E94E50821E73DE3D6
:1009E0004AE150E40E94730820E030E040E251E424
:1009F0000E94940A42E00E94FE0360E070E0CB0196
:100A000008951F920F920FB60F9211242F933F93C8
:100A10008F939F93AF93BF9380916F0190917001DB
:100A2000A0917101B091720130916E0123E0230F0A
:100A30002D3758F50196A11DB11D20936E018093AD
:100A40006F0190937001A0937101B0937201809136
:100A5000730190917401A0917501B0917601019696
:100A6000A11DB11D8093730190937401A093750132
:100A7000B0937601BF91AF919F918F913F912F914C
:100A80000F900FBE0F901F90189526E8230F029627
:100A9000A11DB11DD2CF789484B5826084BD84B588
:100AA000816084BD85B5826085BD85B5816085BD69
:100AB00080916E00816080936E0010928100809121
:100AC00081008260809381008091810081608093A9
:100AD0008100809180008160809380008091B100CE
:100AE00084608093B1008091B00081608093B000F9
:100AF00080917A00846080937A0080917A0082608D
:100B000080937A0080917A00816080937A0080914E
:100B10007A00806880937A001092C10061E089E0D9
:100B20000E94110161E088E00E94110161E085E00E
:100B30000E94110161E084E00E94110161E083E004
:100B40000E94110161E082E00E94110161E082E1F6
:100B50000E94110161E082E10E94110160E08FE0DA
:100B60000E94110161E08AE00E94110161E08BE0C6
:100B70000E94110161E08CE00E94110164E084E1B7
:100B80000E94B702C5E0D0E065E0C62ED12CE12C72
:100B9000F12C75E0272EEEE13E2E00E010E060E043
:100BA0008AE00E94C50060E08BE00E94C50060E022
:100BB0008CE00E94C50060E08BE00E945C038CE149
:100BC00091E00E94CA010E94B40090936D0180934D
:100BD0006C010E94710361E070E080E090E00E948F
:100BE000670161E08AE00E94C50060E08BE00E943E
:100BF000C50060E08CE00E94C50061E08BE00E94CF
:100C00005C030E94B40020914E0130914F01F90124
:100C1000EE0FFF1FEC5BFE4F91838083C9010196AD
:100C2000BE010E943B0B90934F0180934E01809038
:100C3000460190904701092C000CAA08BB0880913E
:100C4000440190914501092E000CAA0BBB0BB50184
:100C5000A401480F591F6A1F7B1F80914801909182
:100C60004901092E000CAA0BBB0B4C015D01840E3F
:100C7000951EA61EB71E80914A0190914B01092E28
:100C8000000CAA0BBB0B880E991EAA1EBB1E8091DE
:100C90004C0190914D01092E000CAA0BBB0BBC011D
:100CA000CD01680D791D8A1D9B1DA70196010E942B
:100CB000710B2F5F3F4F30936D0120936C0181E2E8
:100CC00091E00E94CA0180916C0190916D010E9497
:100CD000DC0480916C0190916D01289EB001299EE9
:100CE000700D1124072E000C880B990B0E948F09A0
:100CF00020E030EC4FE754E40E94E50821E73DE3B3
:100D00004AE150E40E94730820E030E040E251E400
:100D10000E94940A609368017093690180936A014C
:100D200090936B0160E08AE00E94C50061E08BE077
:100D30000E94C50060E08CE00E94C50061E080E098
:100D40000E945C030E94B40020915A0130915B0123
:100D5000F901EE0FFF1FE05BFE4F91838083C90115
:100D60000196BE010E943B0B90935B0180935A0158
:100D70008090500190905101092C000CAA08BB08EA
:100D80008091520190915301092E000CAA0BBB0BCC
:100D9000B501A401480F591F6A1F7B1F80915401A0
:100DA00090915501092E000CAA0BBB0B4C015D0163
:100DB000840E951EA61EB71E809156019091570174
:100DC000092E000CAA0BBB0B880E991EAA1EBB1E77
:100DD0008091580190915901092E000CAA0BBB0B70
:100DE000BC01CD01680D791D8A1D9B1DA7019601CF
:100DF0000E94710B30936D0120936C0186E291E0AB
:100E00000E94CA0180916C0190916D010E94DC04E6
:100E100080916C0190916D01289EB001299E700D0A
:100E20001124072E000C880B990B0E948F0920E0DB
:100E300030EC4FE754E40E94E50821E73DE34AE146
:100E400050E40E94730820E030E040E251E40E9448
:100E5000940A609364017093650180936601909396
:100E6000670161E08AE00E94C50061E08BE00E94BA
:100E7000C50060E08CE00E94C50060E080E00E9458
:100E80005C038BE291E00E94CA010E94B40090933F
:100E90006D0180936C010E94710361E08AE00E9401
:100EA000C50060E08BE00E94C50061E08CE00E941C
:100EB000C50062E080E00E945C0380E391E00E9454
:100EC000CA010E94B40090936D0180936C01389E1A
:100ED000B001399E700D1124072E000C880B990B60
:100EE0000E948F0920E030EC4DE754E40E94E508B1
:100EF00042E00E94FE0380916C0190916D01389E4A
:100F0000B001399E700D1124072E000C880B990B2F
:100F10000E948F0920E030EC4DE754E40E94E50880
:100F2000609360017093610180936201909363010B
:100F300061E08AE00E94C50061E08BE00E94C5008C
:100F400061E08CE00E94C50062E08BE00E945C03DF
:100F500085E391E00E94CA010E94B40090936D0164
:100F600080936C01389EB001399E700D1124072EBC
:100F7000000C880B990B0E948F0920E030EC4DE7A4
:100F800054E40E94E50842E00E94FE0380916C0157
:100F900090916D01389EB001399E700D1124072E7D
:100FA000000C880B990B0E948F092B013C012091AA
:100FB0006401309165014091660150916701609133
:100FC00068017091690180916A0190916B010E94A2
:100FD000E5084B015C0120E030EC4DE754E4C3012F
:100FE000B2010E94E50820916001309161014091B9
:100FF0006201509163010E94E5089B01AC01C501AB
:10100000B4010E94940A20E030E048EC52E40E94CF
:10101000940A60935C0170935D0180935E019093EC
:101020005F0163E080E00E945C038AE391E00E943C
:10103000CA0160915C0170915D0180915E019091A7
:101040005F0142E00E94FE0380E491E00E94CA0139
:1010500068EE73E080E090E00E94670160E08AE063
:101060000E94C50060E08BE00E94C50061E08CE05A
:101070000E94C5000E94B40090936D0180936C01A2
:1010800064E670E080E090E00E94670181E00E94E9
:10109000B1028BE39FE10197F1F70115110509F406
:1010A0007ECD0E9400007BCDE7E7F1E01382128243
:1010B00088E091E09183808389E084838FEF85834A
:1010C00088E0868385E0878384E0808783E081876A
:1010D00082E082871386148615861686178661E05D
:1010E00080E10C94B7025058BB27AA270E948B08B6
:1010F0000C94050A0E94F70938F00E94FE0920F0BE
:1011000039F49F3F19F426F40C94F4090EF4E09599
:10111000E7FB0C94EE09E92F0E94160A58F3BA1760
:10112000620773078407950720F079F4A6F50C94FD
:10113000380A0EF4E0950B2EBA2FA02D0B01B90141
:1011400090010C01CA01A0011124FF27591B99F03D
:10115000593F50F4503E68F11A16F040A22F232F49
:10116000342F4427585FF3CF469537952795A79599
:10117000F0405395C9F77EF41F16BA0B620B730B40
:10118000840BBAF09150A1F0FF0FBB1F661F771FB1
:10119000881FC2F70EC0BA0F621F731F841F48F466
:1011A000879577956795B795F7959E3F08F0B0CFEF
:1011B0009395880F08F09927EE0F979587950895D6
:1011C0000E94CA0908F481E008950E94F9080C946D
:1011D000050A0E94FE0958F00E94F70940F029F420
:1011E0005F3F29F00C94EE0951110C94390A0C94CC
:1011F000F4090E94160A68F39923B1F3552391F379
:10120000951B550BBB27AA2762177307840738F075
:101210009F5F5F4F220F331F441FAA1FA9F335D0D2
:101220000E2E3AF0E0E832D091505040E695001C86
:10123000CAF72BD0FE2F29D0660F771F881FBB1F40
:10124000261737074807AB07B0E809F0BB0B802D1E
:10125000BF01FF2793585F4F3AF09E3F510578F04A
:101260000C94EE090C94390A5F3FE4F3983ED4F3F2
:10127000869577956795B795F7959F5FC9F7880F1E
:10128000911D9695879597F90895E1E0660F771F70
:10129000881FBB1F621773078407BA0720F0621B01
:1012A000730B840BBA0BEE1F88F7E09508950E942C
:1012B0005E096894B1110C94390A08950E941E0ABF
:1012C00088F09F5798F0B92F9927B751B0F0E1F007
:1012D000660F771F881F991F1AF0BA95C9F714C0B7
:1012E000B13091F00E94380AB1E008950C94380AA8
:1012F000672F782F8827B85F39F0B93FCCF38695F0
:1013000077956795B395D9F73EF49095809570954C
:1013100061957F4F8F4F9F4F0895E89409C097FBC9
:101320003EF490958095709561957F4F8F4F9F4FBC
:101330009923A9F0F92F96E9BB279395F695879500
:1013400077956795B795F111F8CFFAF4BB0F11F4C3
:1013500060FF1BC06F5F7F4F8F4F9F4F16C088236A
:1013600011F096E911C0772321F09EE8872F762FA0
:1013700005C0662371F096E8862F70E060E02AF0E1
:101380009A95660F771F881FDAF7880F96958795CD
:1013900097F90895990F0008550FAA0BE0E8FEEFA2
:1013A00016161706E807F907C0F012161306E40729
:1013B000F50798F0621B730B840B950B39F40A2622
:1013C00061F0232B242B252B21F408950A2609F400
:1013D000A140A6958FEF811D811D089597F99F6704
:1013E00080E870E060E008959FEF80EC08950024AD
:1013F0000A941616170618060906089500240A947A
:1014000012161306140605060895092E0394000CFF
:1014100011F4882352F0BB0F40F4BF2B11F460FF8E
:1014200004C06F5F7F4F8F4F9F4F089557FD9058B7
:10143000440F551F59F05F3F71F04795880F97FB98
:10144000991F61F09F3F79F0879508951216130652
:101450001406551FF2CF4695F1DF08C01616170681
:101460001806991FF1CF86957105610508940895B6
:10147000E894BB2766277727CB0197F908950E9448
:10148000CA0908F48FEF089516F00C94060B0C941B
:10149000F40968940C94EE090E941E0AA8F399239B
:1014A000C1F3AEF3DF93CF931F930F93FF92C92F36
:1014B000DD2788232AF02197660F771F881FDAF728
:1014C00020E030E040E85FEB9FE3883920F0803E89
:1014D00038F021968F770E947408E8E6F0E004C0A7
:1014E0000E947408E5E9F0E00E94140B8B01BE0134
:1014F000EC01FB2E6F5771097595771F880B990BBF
:101500000E948F0928E132E741E35FE30E94A70AC6
:10151000AF2D9801AE01FF900F911F91CF91DF91F8
:101520000E948B080C94050A0E94A70A0C94050AD5
:101530000E94F70938F00E94FE0920F0952311F06F
:101540000C94EE090C94F40911240C94390A0E94AD
:10155000160A70F3959FC1F3950F50E0551F629FD7
:10156000F001729FBB27F00DB11D639FAA27F00DFC
:10157000B11DAA1F649F6627B00DA11D661F829F23
:101580002227B00DA11D621F739FB00DA11D621F08
:10159000839FA00D611D221F749F3327A00D611D25
:1015A000231F849F600D211D822F762F6A2F112407
:1015B0009F5750409AF0F1F088234AF0EE0FFF1F3A
:1015C000BB1F661F771F881F91505040A9F79E3F91
:1015D000510580F00C94EE090C94390A5F3FE4F356
:1015E000983ED4F3869577956795B795F795E795E7
:1015F0009F5FC1F7FE2B880F911D9695879597F9F0
:1016000008950E94CA09880B990B08959F3F31F0F5
:10161000915020F4879577956795B795880F911D20
:101620009695879597F90895DF93CF931F930F931E
:10163000FF92EF92DF927B018C01689406C0DA2E54
:10164000EF010E94A70AFE01E894A591259135912A
:1016500045915591A6F3EF010E948B08FE01970179
:10166000A801DA9469F7DF90EF90FF900F911F9136
:10167000CF91DF91089597FB072E16F4009407D0C1
:1016800077FD09D00E94900B07FC05D03EF49095A1
:1016900081959F4F0895709561957F4F0895A1E2C0
:1016A0001A2EAA1BBB1BFD010DC0AA1FBB1FEE1FDC
:1016B000FF1FA217B307E407F50720F0A21BB30B27
:1016C000E40BF50B661F771F881F991F1A9469F7A3
:1016D00060957095809590959B01AC01BD01CF01FF
:1016E0000895052E97FB1EF400940E94880B57FD69
:1016F00007D00E944F0B07FC03D04EF40C94880BCC
:1017000050954095309521953F4F4F4F5F4F08952D
:1017100090958095709561957F4F8F4F9F4F08955D
:10172000AA1BBB1B51E107C0AA1FBB1FA617B70707
:1017300010F0A61BB70B881F991F5A95A9F7809523
:101740009095BC01CD010895EE0FFF1F0590F49117
:10175000E02D0994F894FFCF0000803F00000000C6
:101760006B039901C701C6016E616E00696E660068
:101770006F76660054323D200049323D20004931E9
:101780003D200054313D200055303D200055313D75
:0C17900020004566663D2000202500007A
:107E0000112484B714BE81FFF0D085E080938100F7
:107E100082E08093C00088E18093C10086E0809377
:107E2000C20080E18093C4008EE0C9D0259A86E02C
:107E300020E33CEF91E0309385002093840096BBD3
:107E4000B09BFECF1D9AA8958150A9F7CC24DD24C4
:107E500088248394B5E0AB2EA1E19A2EF3E0BF2EE7
:107E6000A2D0813461F49FD0082FAFD0023811F036
:107E7000013811F484E001C083E08DD089C08234E0
:107E800011F484E103C0853419F485E0A6D080C0E4
:107E9000853579F488D0E82EFF2485D0082F10E0AE
:107EA000102F00270E291F29000F111F8ED06801E7
:107EB0006FC0863521F484E090D080E0DECF843638
:107EC00009F040C070D06FD0082F6DD080E0C81688
:107ED00080E7D80618F4F601B7BEE895C0E0D1E017
:107EE00062D089930C17E1F7F0E0CF16F0E7DF06D8
:107EF00018F0F601B7BEE89568D007B600FCFDCFD4
:107F0000A601A0E0B1E02C9130E011968C91119780
:107F100090E0982F8827822B932B1296FA010C0160
:107F200087BEE89511244E5F5F4FF1E0A038BF0790
:107F300051F7F601A7BEE89507B600FCFDCF97BE46
:107F4000E89526C08437B1F42ED02DD0F82E2BD052
:107F50003CD0F601EF2C8F010F5F1F4F84911BD097
:107F6000EA94F801C1F70894C11CD11CFA94CF0C13
:107F7000D11C0EC0853739F428D08EE10CD085E9AC
:107F80000AD08FE07ACF813511F488E018D01DD067
:107F900080E101D065CF982F8091C00085FFFCCF94
:107FA0009093C60008958091C00087FFFCCF809118
:107FB000C00084FD01C0A8958091C6000895E0E648
:107FC000F0E098E1908380830895EDDF803219F02E
:107FD00088E0F5DFFFCF84E1DECF1F93182FE3DFCA
:107FE0001150E9F7F2DF1F91089580E0E8DFEE27F6
:047FF000FF270994CA
:027FFE00040479
:00000001FF
